:100000000000042039050000790500007B05000090
:100010007D0500007F050000810500000000000054
:100020000000000000000000000000008305000048
:10003000850500000000000087050000890500001C
:100040008D0500008F05000091050000930500005C
:100050009505000097050000990500009B0500002C
:100060009D0500009F050000A1050000A3050000FC
:10007000A5050000A7050000A9050000AB050000CC
:10008000AD050000AF050000B1050000B30500009C
:10009000B5050000B7050000B9050000BB0500006C
:1000A000BD050000BF050000C1050000C30500003C
:1000B000C5050000C70500008B0500008B0500008A
:1000C000C9050000CB050000CD050000CF050000EC
:1000D000D1050000D3050000D5050000D7050000BC
:1000E000D9050000DB050000DD050000DF0500008C
:0800F0008B050000E105000092
:1000F800024B034A1A6000BF704700BF000000208F
:100108000090D00308B500F0EBF80346002B0ED0A2
:100118004FF080430022C3F80C214FF080430022A7
:10012800C3F810214FF080430022C3F8382500F0AF
:10013800E9F80346002B76D04FF08053604AD3F895
:100148000434C2F820354FF080535D4AD3F80834A0
:10015800C2F824354FF08053594AD3F80C34C2F80A
:1001680028354FF08053564AD3F81034C2F82C354E
:100178004FF08053524AD3F81434C2F830354FF058
:1001880080534F4AD3F81834C2F834354FF08053AF
:100198004B4AD3F81C34C2F840354FF08053484AD4
:1001A800D3F82034C2F844354FF08053444AD3F88A
:1001B8002434C2F848354FF08053414AD3F82834E4
:1001C800C2F84C354FF080533D4AD3F82C34C2F86E
:1001D80050354FF080533A4AD3F83034C2F854358A
:1001E8004FF08053364AD3F83434C2F860354FF0B4
:1001F8008053334AD3F83834C2F864354FF080530B
:100208002F4AD3F83C34C2F868354FF080532C4A53
:10021800D3F84034C2F86C354FF08053284AD3F8ED
:100228004434C2F8703500F07FF80346002B02D042
:10023800244B254A1A6000F089F80346002B03D0A6
:10024800224BFB22C3F8182500F092F80346002B36
:100258000AD01F4B1B6823F00F021E4B1B6803F0CC
:100268000F031B4913430B6000F094F80346002B5F
:1002780003D0194B4FF400721A6000F09DF8034642
:10028800002B0DD04FF08043D3F8003403F0010366
:10029800002B05D04FF080436FF00102C3F8002413
:1002A8000E4BD3F888300D4A43F47003C2F88830F7
:1002B800BFF34F8FBFF36F8FFFF71AFF00BF08BD63
:1002C80000C000408C5600404881030000F0004008
:1002D800E40E0040580200104096024000ED00E095
:1002E800064B1B68082B05D1054B1B68002B01D159
:1002F800012300E000231846704700BF30010010BA
:1003080034010010064B1B68082B05D1054B1B68F0
:10031800002B01D1012300E000231846704700BFDD
:100328003001001034010010064B1B68082B05D162
:10033800054B1B68002B01D1012300E00023184660
:10034800704700BF3001001034010010064B1B68D5
:10035800082B05D1054B1B68002B01D1012300E0B8
:1003680000231846704700BF300100103401001008
:10037800064B1B68082B05D1054B1B68002B01D1C8
:10038800012300E000231846704700BF3001001029
:1003980034010010064B1B68082B05D1054B1B6860
:1003A800002B01D1012300E000231846704700BF4D
:1003B8003001001034010010064B1B68082B05D1D2
:1003C800054B1B68002B01D1012300E000231846D0
:1003D800704700BF3001001034010010344935481F
:1003E8000A1A02D0072291438D46334933480A1A24
:1003F80006D00722914381F30988022282F31488E8
:100408002F483049304A00F042F830483049314AE4
:1004180000F03DF830483149314A00F038F83148A9
:100428003149324A00F033F831483249324A00F053
:100438002EF832483249334A00F029F83248334915
:10044800334A00F024F833483349002200F02AF8F0
:1004580032483349002200F025F832483249091A57
:10046800082902DB0022026041601F481F498842B8
:1004780005D00268043003B4904703BCF7E70020B6
:100488008646EC4600200021284A9047FEE788422D
:1004980007D0521A05D0037801300B700131013AA8
:1004A800F9D17047884202D002700130FAE77047EC
:1004B8000000042000E003200000042000000420C5
:1004C800400900000000002004000020E4050000AE
:1004D800E405000022090000400900000000002097
:1004E800000000202409000024090000240900005D
:1004F8002409000024090000240900002409000040
:1005080024090000400900004409000004000020FC
:100518000400002004000020040000200400002043
:100528000400002004000020042000203F060000F2
:100538000A484FF00701884385460948804709481B
:10054800094901600948016841F470010160BFF37D
:100558004F8FBFF36F8FFFF741BF000000000420EB
:100568000D01000008ED00E00000000088ED00E04B
:10057800FEE7FEE7FEE7FEE7FEE7FEE7FEE7FEE74B
:10058800FEE7FEE7FEE7FEE7FEE7FEE7FEE7FEE73B
:10059800FEE7FEE7FEE7FEE7FEE7FEE7FEE7FEE72B
:1005A800FEE7FEE7FEE7FEE7FEE7FEE7FEE7FEE71B
:1005B800FEE7FEE7FEE7FEE7FEE7FEE7FEE7FEE70B
:1005C800FEE7FEE7FEE7FEE7FEE7FEE7FEE7FEE7FB
:0C05D800FEE7FEE7FEE7FEE7FEE700BFDF
:1005E40000B585B00190019B002B0AD0074B43F066
:1005F40001030393019B9B010293039B0298984779
:1006040000E000BF05B05DF804FB00BF3009000046
:1006140000B583B00190019B002B0AD04FF47A708F
:10062400FFF7DEFF019B013B0193019B002BF5D1FA
:1006340000E000BF03B05DF804FB00B583B0012007
:1006440000F058F90023019309E0019B184600F0DB
:100654000DF96420FFF7DCFF019B01330193019B3B
:10066400032BF2DDEEE7000082B00190019B1B68D2
:100674001F2B02D84FF0A04306E0019B1B6803F038
:100684001F02019B1A60024B184602B0704700BF5C
:100694000003005000B585B00190084611461A4683
:1006A40003468DF803300B468DF8023013468DF85F
:1006B400013001AB1846FFF7D7FF03909DF80320E4
:1006C4009DF802305B001A439DF801309B001A43E9
:1006D4009DF818301B0242EA03019DF81C301B04EC
:1006E400019A1943039B02F5E07243F8221000BFFC
:1006F40005B05DF804FB00B585B0039000230193B9
:10070400002300930023012201210398FFF7C2FF75
:1007140000BF05B05DF804FB00B585B003900B463F
:100724008DF80B309DF80B200023019300230093D8
:100734001346002200210398FFF7ACFF00BF05B069
:100744005DF804FB00B585B0019001AB1846FFF7D6
:100754008BFF0390019B012202FA03F319460398CD
:1007640000F04CF800BF05B05DF804FB00B585B09F
:10077400019001AB1846FFF777FF0390019B01221C
:1007840002FA03F31946039800F042F800BF05B0DB
:100794005DF804FB00B585B0019001AB1846FFF786
:1007A40063FF0390039BD3F804350293029BDA435F
:1007B400019B012101FA03F31A40039BC3F80825A6
:1007C400019B01229A40029B1A40039BC3F80C250B
:1007D40000BF05B05DF804FB00B583B00190009143
:1007E400009B002B03D10198FFF7C0FF02E00198A2
:1007F400FFF7A8FF00BF03B05DF804FB82B00190CF
:100804000091019B009AC3F8082500BF02B070470D
:1008140082B001900091019B009AC3F80C2500BF9F
:1008240002B0704700B583B00190064A019B13449F
:100834001B7801211846FFF7CFFF00BF03B05DF816
:1008440004FB00BF3809000000B583B00023019306
:1008540005E00198FFF7E6FF019B01330193019B3B
:10086400032BF6D900BF03B05DF804FB00B583B0D9
:100874000190054A019B13441B781846FFF78AFF31
:1008840000BF03B05DF804FB3809000000B583B075
:100894000023019309E0094A019B13441B7818467D
:1008A400FFF729FF019B01330193019B032BF2D92D
:1008B400FFF7CAFF00BF03B05DF804FB380900006E
:1008C40000B583B0002301930AE0094A019B134455
:1008D4001B7803211846FFF71FFF019B0133019387
:1008E400019B032BF1D900BF03B05DF804FB00BFEB
:1008F4003C09000000B583B00190019B03F00103A3
:10090400002B01D0FFF7C2FF019B03F00203002B71
:0E09140001D0FFF7D5FF00BF03B05DF804FB74
:100924000000000000000000000000000338FDD8B3
:0C093400704700000D0E0F100B0C18197E
:040940000090D00350
:0400000300000539BB
:00000001FF
